{
  "contractName": "MetaMarket",
  "abi": [
    {
      "inputs": [],
      "stateMutability": "nonpayable",
      "type": "constructor"
    },
    {
      "anonymous": false,
      "inputs": [
        {
          "indexed": false,
          "internalType": "uint256",
          "name": "listingId",
          "type": "uint256"
        }
      ],
      "name": "LogNewListing",
      "type": "event"
    },
    {
      "anonymous": false,
      "inputs": [
        {
          "indexed": false,
          "internalType": "uint256",
          "name": "listingId",
          "type": "uint256"
        }
      ],
      "name": "LogRemovedListing",
      "type": "event"
    },
    {
      "anonymous": false,
      "inputs": [
        {
          "indexed": false,
          "internalType": "uint256",
          "name": "listingId",
          "type": "uint256"
        }
      ],
      "name": "LogSoldListing",
      "type": "event"
    },
    {
      "anonymous": false,
      "inputs": [
        {
          "indexed": false,
          "internalType": "uint256",
          "name": "listingId",
          "type": "uint256"
        }
      ],
      "name": "LogUpdatedListing",
      "type": "event"
    },
    {
      "inputs": [
        {
          "internalType": "uint256",
          "name": "",
          "type": "uint256"
        }
      ],
      "name": "listings",
      "outputs": [
        {
          "internalType": "uint256",
          "name": "listingId",
          "type": "uint256"
        },
        {
          "internalType": "address",
          "name": "tokenContractAddress",
          "type": "address"
        },
        {
          "internalType": "uint256",
          "name": "tokenContractId",
          "type": "uint256"
        },
        {
          "internalType": "uint256",
          "name": "price",
          "type": "uint256"
        },
        {
          "internalType": "enum MetaMarket.State",
          "name": "state",
          "type": "uint8"
        },
        {
          "internalType": "address payable",
          "name": "seller",
          "type": "address"
        },
        {
          "internalType": "address payable",
          "name": "buyer",
          "type": "address"
        }
      ],
      "stateMutability": "view",
      "type": "function"
    },
    {
      "inputs": [],
      "name": "owner",
      "outputs": [
        {
          "internalType": "address",
          "name": "",
          "type": "address"
        }
      ],
      "stateMutability": "view",
      "type": "function"
    },
    {
      "inputs": [],
      "name": "totalListings",
      "outputs": [
        {
          "internalType": "uint256",
          "name": "",
          "type": "uint256"
        }
      ],
      "stateMutability": "view",
      "type": "function"
    },
    {
      "inputs": [
        {
          "internalType": "address",
          "name": "tokenAddress",
          "type": "address"
        },
        {
          "internalType": "uint256",
          "name": "tokenId",
          "type": "uint256"
        },
        {
          "internalType": "uint256",
          "name": "price",
          "type": "uint256"
        }
      ],
      "name": "createListing",
      "outputs": [
        {
          "internalType": "uint256",
          "name": "",
          "type": "uint256"
        }
      ],
      "stateMutability": "nonpayable",
      "type": "function"
    },
    {
      "inputs": [
        {
          "internalType": "uint256",
          "name": "listingId",
          "type": "uint256"
        }
      ],
      "name": "removeListing",
      "outputs": [
        {
          "internalType": "bool",
          "name": "",
          "type": "bool"
        }
      ],
      "stateMutability": "nonpayable",
      "type": "function"
    },
    {
      "inputs": [
        {
          "internalType": "uint256",
          "name": "listingId",
          "type": "uint256"
        }
      ],
      "name": "updatePrice",
      "outputs": [
        {
          "internalType": "bool",
          "name": "",
          "type": "bool"
        }
      ],
      "stateMutability": "nonpayable",
      "type": "function"
    },
    {
      "inputs": [
        {
          "internalType": "uint256",
          "name": "listingId",
          "type": "uint256"
        }
      ],
      "name": "purchaseListing",
      "outputs": [
        {
          "internalType": "bool",
          "name": "",
          "type": "bool"
        }
      ],
      "stateMutability": "payable",
      "type": "function"
    },
    {
      "inputs": [
        {
          "internalType": "uint256",
          "name": "amount",
          "type": "uint256"
        }
      ],
      "name": "withdrawFees",
      "outputs": [
        {
          "internalType": "bool",
          "name": "",
          "type": "bool"
        }
      ],
      "stateMutability": "payable",
      "type": "function"
    },
    {
      "inputs": [
        {
          "internalType": "address",
          "name": "operator",
          "type": "address"
        },
        {
          "internalType": "address",
          "name": "from",
          "type": "address"
        },
        {
          "internalType": "uint256",
          "name": "tokenId",
          "type": "uint256"
        },
        {
          "internalType": "bytes",
          "name": "data",
          "type": "bytes"
        }
      ],
      "name": "onERC721Received",
      "outputs": [
        {
          "internalType": "bytes4",
          "name": "",
          "type": "bytes4"
        }
      ],
      "stateMutability": "pure",
      "type": "function"
    }
  ],
  "bytecode": "0x608060405234801561001057600080fd5b50336000806101000a81548173ffffffffffffffffffffffffffffffffffffffff021916908373ffffffffffffffffffffffffffffffffffffffff1602179055506000600181905550610d2c806100686000396000f3fe6080604052600436106100865760003560e01c80635e318e07116100595780635e318e07146101725780638d6cc56d146101a25780638da5cb5b146101df578063c78b616c1461020a578063de74e57b1461023557610086565b8063150b7a021461008b578063169d5a7d146100c857806324780c56146100f8578063479ad4c314610135575b600080fd5b34801561009757600080fd5b506100b260048036038101906100ad91906108ce565b610278565b6040516100bf9190610991565b60405180910390f35b6100e260048036038101906100dd91906109ac565b6102a6565b6040516100ef91906109f4565b60405180910390f35b34801561010457600080fd5b5061011f600480360381019061011a9190610a0f565b6102ad565b60405161012c9190610a71565b60405180910390f35b34801561014157600080fd5b5061015c600480360381019061015791906109ac565b61056e565b60405161016991906109f4565b60405180910390f35b61018c600480360381019061018791906109ac565b6105e5565b60405161019991906109f4565b60405180910390f35b3480156101ae57600080fd5b506101c960048036038101906101c491906109ac565b61067b565b6040516101d691906109f4565b60405180910390f35b3480156101eb57600080fd5b506101f46106f2565b6040516102019190610a9b565b60405180910390f35b34801561021657600080fd5b5061021f610716565b60405161022c9190610a71565b60405180910390f35b34801561024157600080fd5b5061025c600480360381019061025791906109ac565b61071c565b60405161026f9796959493929190610b4e565b60405180910390f35b60007f150b7a023d4804d13e8c85fb27262cb750cf6ba9f9dd3bb30d90f482ceeb4b1f905095945050505050565b6000919050565b60007fffffffffffffffffffffffffffffffffffffffffffffffffffffffffffffffff82106102db57600080fd5b60018060008282546102ed9190610bec565b925050819055506040518060e0016040528060015481526020018573ffffffffffffffffffffffffffffffffffffffff1681526020018481526020018381526020016000600281111561034357610342610ab6565b5b81526020013373ffffffffffffffffffffffffffffffffffffffff168152602001600073ffffffffffffffffffffffffffffffffffffffff168152506002600060015481526020019081526020016000206000820151816000015560208201518160010160006101000a81548173ffffffffffffffffffffffffffffffffffffffff021916908373ffffffffffffffffffffffffffffffffffffffff160217905550604082015181600201556060820151816003015560808201518160040160006101000a81548160ff0219169083600281111561042457610423610ab6565b5b021790555060a08201518160040160016101000a81548173ffffffffffffffffffffffffffffffffffffffff021916908373ffffffffffffffffffffffffffffffffffffffff16021790555060c08201518160050160006101000a81548173ffffffffffffffffffffffffffffffffffffffff021916908373ffffffffffffffffffffffffffffffffffffffff1602179055509050508373ffffffffffffffffffffffffffffffffffffffff166342842e0e3330866040518463ffffffff1660e01b81526004016104f793929190610c42565b600060405180830381600087803b15801561051157600080fd5b505af1158015610525573d6000803e3d6000fd5b505050507f9e237612f71f9b8fec1087d90872ad11daf6dfacd0f23e07bea88931b3a62cf660015460405161055a9190610a71565b60405180910390a160015490509392505050565b6000813373ffffffffffffffffffffffffffffffffffffffff166002600083815260200190815260200160002060040160019054906101000a900473ffffffffffffffffffffffffffffffffffffffff1673ffffffffffffffffffffffffffffffffffffffff16146105df57600080fd5b50919050565b60008060009054906101000a900473ffffffffffffffffffffffffffffffffffffffff1673ffffffffffffffffffffffffffffffffffffffff163373ffffffffffffffffffffffffffffffffffffffff1614610676576040517f08c379a000000000000000000000000000000000000000000000000000000000815260040161066d90610cd6565b60405180910390fd5b919050565b6000813373ffffffffffffffffffffffffffffffffffffffff166002600083815260200190815260200160002060040160019054906101000a900473ffffffffffffffffffffffffffffffffffffffff1673ffffffffffffffffffffffffffffffffffffffff16146106ec57600080fd5b50919050565b60008054906101000a900473ffffffffffffffffffffffffffffffffffffffff1681565b60015481565b60026020528060005260406000206000915090508060000154908060010160009054906101000a900473ffffffffffffffffffffffffffffffffffffffff16908060020154908060030154908060040160009054906101000a900460ff16908060040160019054906101000a900473ffffffffffffffffffffffffffffffffffffffff16908060050160009054906101000a900473ffffffffffffffffffffffffffffffffffffffff16905087565b600080fd5b600080fd5b600073ffffffffffffffffffffffffffffffffffffffff82169050919050565b6000610800826107d5565b9050919050565b610810816107f5565b811461081b57600080fd5b50565b60008135905061082d81610807565b92915050565b6000819050919050565b61084681610833565b811461085157600080fd5b50565b6000813590506108638161083d565b92915050565b600080fd5b600080fd5b600080fd5b60008083601f84011261088e5761088d610869565b5b8235905067ffffffffffffffff8111156108ab576108aa61086e565b5b6020830191508360018202830111156108c7576108c6610873565b5b9250929050565b6000806000806000608086880312156108ea576108e96107cb565b5b60006108f88882890161081e565b95505060206109098882890161081e565b945050604061091a88828901610854565b935050606086013567ffffffffffffffff81111561093b5761093a6107d0565b5b61094788828901610878565b92509250509295509295909350565b60007fffffffff0000000000000000000000000000000000000000000000000000000082169050919050565b61098b81610956565b82525050565b60006020820190506109a66000830184610982565b92915050565b6000602082840312156109c2576109c16107cb565b5b60006109d084828501610854565b91505092915050565b60008115159050919050565b6109ee816109d9565b82525050565b6000602082019050610a0960008301846109e5565b92915050565b600080600060608486031215610a2857610a276107cb565b5b6000610a368682870161081e565b9350506020610a4786828701610854565b9250506040610a5886828701610854565b9150509250925092565b610a6b81610833565b82525050565b6000602082019050610a866000830184610a62565b92915050565b610a95816107f5565b82525050565b6000602082019050610ab06000830184610a8c565b92915050565b7f4e487b7100000000000000000000000000000000000000000000000000000000600052602160045260246000fd5b60038110610af657610af5610ab6565b5b50565b6000819050610b0782610ae5565b919050565b6000610b1782610af9565b9050919050565b610b2781610b0c565b82525050565b6000610b38826107d5565b9050919050565b610b4881610b2d565b82525050565b600060e082019050610b63600083018a610a62565b610b706020830189610a8c565b610b7d6040830188610a62565b610b8a6060830187610a62565b610b976080830186610b1e565b610ba460a0830185610b3f565b610bb160c0830184610b3f565b98975050505050505050565b7f4e487b7100000000000000000000000000000000000000000000000000000000600052601160045260246000fd5b6000610bf782610833565b9150610c0283610833565b9250827fffffffffffffffffffffffffffffffffffffffffffffffffffffffffffffffff03821115610c3757610c36610bbd565b5b828201905092915050565b6000606082019050610c576000830186610a8c565b610c646020830185610a8c565b610c716040830184610a62565b949350505050565b600082825260208201905092915050565b7f4e6f7420617574686f72697a65642e0000000000000000000000000000000000600082015250565b6000610cc0600f83610c79565b9150610ccb82610c8a565b602082019050919050565b60006020820190508181036000830152610cef81610cb3565b905091905056fea2646970667358221220c57f590835b74251ef3015ec298f1d92d125cd690578525a7c1d60db0727e28e64736f6c63430008090033",
  "immutableReferences": {},
  "source": "/// SPDX-License-Identifier: MIT\npragma solidity ^0.8.0;\n\nimport \"@openzeppelin/contracts/token/ERC721/ERC721.sol\";\n\n/// @title A smart contract to enable buying and selling of ERC721 tokens\n/// @author @kevsherman\n/// @notice Still a WIP, demo purposes only\ncontract MetaMarket is IERC721Receiver {\n  \n  /// Owner set when contract deployed\n  address public owner;\n  \n  /// Count of the total listings created\n  uint public totalListings;\n\n  /// The state of the Listing\n  enum State { ForSale, Sold, Cancelled }\n\n  /// Mapping from listingId to Listing\n  mapping(uint => Listing) public listings;\n\n  /// Struct of the Listing object, to store who is selling/buying what \n  struct Listing {\n    uint listingId;\n    address tokenContractAddress;\n    uint tokenContractId;\n    uint price;\n    State state;\n    address payable seller;\n    address payable buyer;\n  }\n\n  /* \n   * Events\n   */\n\n  /// @notice Event to be emitted when a new Listing has been created\n  /// @return the listing id for the created Listing\n  event LogNewListing(uint listingId);\n\n  /// @notice Event to be emitted when a Listing has been updated\n  /// @return the listing id for the updated Listing\n  event LogUpdatedListing(uint listingId);\n\n  /// @notice Event to be emitted when a Listing has been removed\n  /// @return the listing id for the removed Listing\n  event LogRemovedListing(uint listingId);\n\n  /// @notice Event emitted when a Listing has been updated\n  /// @return the listing id for the updated Listing\n  event LogSoldListing(uint listingId);\n\n  /* \n   * Modifiers\n   */\n\n  /// @notice Modifer to ensure that only the contract owner can execute a function\n  modifier onlyOwner() {\n    require(msg.sender == owner, \"Not authorized.\");\n      _;\n  }\n\n  /// @notice Modifier to ensure that the msg.sender is the seller \n  modifier ensureSeller(uint listingId) {\n    require (listings[listingId].seller == msg.sender);\n    _;\n  }\n\n  /// @notice Modifier to ensure that the buyer has supplied enough ETH for the transaction\n  /// @dev Purchasing functionality not yet built\n  modifier paidEnough(uint listingId) {\n    //require (msg.value >= listings[listingId].price)\n    _;\n  }\n\n  /// @notice Modifier to be called after a purchase transaction to return excess funds\n  /// @dev Purchasing functionality not yet built\n  modifier returnExcess(uint listingId) {\n    _;\n    // uint _price = listings[listingId].price;\n    // uint amountToRefund = msg.value - _price;\n    // listings[listingId].buyer.transfer(amountToRefund);\n  }\n\n  /// @notice Initializes the contract by setting the owner and the totalListings variable.\n  constructor() {\n    owner = msg.sender;\n    totalListings = 0;\n  }\n\n  /// @notice Allow a seller to list an NFT for sale, transfer the token to the MetaMarket address\n  /// @dev The safeTransferFrom() handles ensuring ownership and approvals, so they aren't included as modifiers.\n  function createListing(address tokenAddress, uint tokenId, uint price) \n    public \n    returns(uint)\n  {\n    require(price < type(uint256).max); //Protect against overflow attacks\n\n    totalListings += 1; //Newly updated total count acts as unique ID for new listing\n    listings[totalListings] = Listing({\n      listingId: totalListings,\n      tokenContractAddress: tokenAddress,\n      tokenContractId: tokenId,\n      price: price,\n      state: State.ForSale,\n      seller: payable(msg.sender),\n      buyer: payable(address(0))\n    });\n\n    //Transfer the NFT to the MetaMarket contract address.\n    ERC721(tokenAddress).safeTransferFrom(msg.sender, address(this), tokenId);\n\n    emit LogNewListing(totalListings);\n    return totalListings; \n  }\n\n  /// @notice Allow a seller to remove the listing and get the token back from the MetaMarket address\n  /// @dev To Do:\n  ///      1. validate that msg.sender is the seller\n  ///      2. mark the item as 'cancelled'\n  ///      3. emit a LogRemovedListing event\n  ///      4. Return a bool for success/failure\n  function removeListing(uint listingId) \n    public\n    ensureSeller(listingId)\n    returns(bool)\n  {\n\n  }\n\n  /// @notice Allow a seller to update the listing price\n  /// @dev To Do:\n  ///      1. validate it is the seller attempting to update the listing\n  ///      2. validate that msg.sender is the seller\n  ///      3. emit a LogUpdatedListing event\n  ///      4. Return a bool for success/failure\n  function updatePrice(uint listingId)\n    public\n    ensureSeller(listingId)\n    returns(bool)\n  {\n\n  }\n\n\n  /// @notice Allow a buyer to update the listing price\n  /// @dev To Do: \n  ///        1. validate the transaction has sufficient eth\n  ///        2. transfer eth to seller\n  ///        3. transfer nft to buyer\n  ///        4. mark listing as Sold\n  ///        5. return any excess funds to buyer\n  ///        6. return a bool for success/failure\n  function purchaseListing(uint listingId) \n    public \n    payable\n    paidEnough(listingId)\n    returnExcess(listingId)\n    returns(bool)\n  {\n\n  } \n\n  /// @notice Allow the contract owner to withdraw accrued fees\n  /// @dev To Do: No fees currently collected to withdraw\n  function withdrawFees(uint amount)\n    public\n    payable\n    onlyOwner\n    returns(bool)  \n  {\n\n  }\n\n  /// @notice Override function to allow for recieving ERC721 tokens\n  /// @dev Figure out how to remove warning re: unused variables\n  function onERC721Received(\n    /* solhint-disable */\n      address operator,\n      address from,\n      uint256 tokenId,\n      bytes calldata data\n    /* solhint-enable */\n    ) external pure override returns (bytes4) {\n      return bytes4(keccak256(\"onERC721Received(address,address,uint256,bytes)\"));\n  }\n}\n",
  "sourcePath": "/Users/kevinshouse/Projects/BlockchainBootcamp/blockchain-developer-bootcamp-final-project/contracts/MetaMarket.sol",
  "compiler": {
    "name": "solc",
    "version": "0.8.9+commit.e5eed63a.Emscripten.clang"
  },
  "schemaVersion": "3.4.3",
  "updatedAt": "2021-11-30T22:29:20.916Z",
  "devdoc": {
    "author": "@kevsherman",
    "kind": "dev",
    "methods": {
      "createListing(address,uint256,uint256)": {
        "details": "The safeTransferFrom() handles ensuring ownership and approvals, so they aren't included as modifiers."
      },
      "onERC721Received(address,address,uint256,bytes)": {
        "details": "Figure out how to remove warning re: unused variables"
      },
      "purchaseListing(uint256)": {
        "details": "To Do:         1. validate the transaction has sufficient eth        2. transfer eth to seller        3. transfer nft to buyer        4. mark listing as Sold        5. return any excess funds to buyer        6. return a bool for success/failure"
      },
      "removeListing(uint256)": {
        "details": "To Do:      1. validate that msg.sender is the seller      2. mark the item as 'cancelled'      3. emit a LogRemovedListing event      4. Return a bool for success/failure"
      },
      "updatePrice(uint256)": {
        "details": "To Do:      1. validate it is the seller attempting to update the listing      2. validate that msg.sender is the seller      3. emit a LogUpdatedListing event      4. Return a bool for success/failure"
      },
      "withdrawFees(uint256)": {
        "details": "To Do: No fees currently collected to withdraw"
      }
    },
    "title": "A smart contract to enable buying and selling of ERC721 tokens",
    "version": 1
  },
  "userdoc": {
    "events": {
      "LogNewListing(uint256)": {
        "notice": "Event to be emitted when a new Listing has been created"
      },
      "LogRemovedListing(uint256)": {
        "notice": "Event to be emitted when a Listing has been removed"
      },
      "LogSoldListing(uint256)": {
        "notice": "Event emitted when a Listing has been updated"
      },
      "LogUpdatedListing(uint256)": {
        "notice": "Event to be emitted when a Listing has been updated"
      }
    },
    "kind": "user",
    "methods": {
      "constructor": {
        "notice": "Initializes the contract by setting the owner and the totalListings variable."
      },
      "createListing(address,uint256,uint256)": {
        "notice": "Allow a seller to list an NFT for sale, transfer the token to the MetaMarket address"
      },
      "listings(uint256)": {
        "notice": "Mapping from listingId to Listing"
      },
      "onERC721Received(address,address,uint256,bytes)": {
        "notice": "Override function to allow for recieving ERC721 tokens"
      },
      "owner()": {
        "notice": "Owner set when contract deployed"
      },
      "purchaseListing(uint256)": {
        "notice": "Allow a buyer to update the listing price"
      },
      "removeListing(uint256)": {
        "notice": "Allow a seller to remove the listing and get the token back from the MetaMarket address"
      },
      "totalListings()": {
        "notice": "Count of the total listings created"
      },
      "updatePrice(uint256)": {
        "notice": "Allow a seller to update the listing price"
      },
      "withdrawFees(uint256)": {
        "notice": "Allow the contract owner to withdraw accrued fees"
      }
    },
    "notice": "Still a WIP, demo purposes only",
    "version": 1
  }
}