{
  "contractName": "MetaMarket",
  "abi": [
    {
      "inputs": [],
      "stateMutability": "nonpayable",
      "type": "constructor"
    },
    {
      "anonymous": false,
      "inputs": [
        {
          "indexed": false,
          "internalType": "uint256",
          "name": "listingId",
          "type": "uint256"
        }
      ],
      "name": "LogNewListing",
      "type": "event"
    },
    {
      "anonymous": false,
      "inputs": [
        {
          "indexed": false,
          "internalType": "uint256",
          "name": "listingId",
          "type": "uint256"
        }
      ],
      "name": "LogRemovedListing",
      "type": "event"
    },
    {
      "anonymous": false,
      "inputs": [
        {
          "indexed": false,
          "internalType": "uint256",
          "name": "listingId",
          "type": "uint256"
        }
      ],
      "name": "LogSoldListing",
      "type": "event"
    },
    {
      "anonymous": false,
      "inputs": [
        {
          "indexed": false,
          "internalType": "uint256",
          "name": "listingId",
          "type": "uint256"
        }
      ],
      "name": "LogUpdatedListing",
      "type": "event"
    },
    {
      "inputs": [
        {
          "internalType": "uint256",
          "name": "",
          "type": "uint256"
        }
      ],
      "name": "listings",
      "outputs": [
        {
          "internalType": "uint256",
          "name": "listingId",
          "type": "uint256"
        },
        {
          "internalType": "address",
          "name": "tokenContractAddress",
          "type": "address"
        },
        {
          "internalType": "uint256",
          "name": "tokenContractId",
          "type": "uint256"
        },
        {
          "internalType": "uint256",
          "name": "price",
          "type": "uint256"
        },
        {
          "internalType": "enum MetaMarket.State",
          "name": "state",
          "type": "uint8"
        },
        {
          "internalType": "address payable",
          "name": "seller",
          "type": "address"
        },
        {
          "internalType": "address payable",
          "name": "buyer",
          "type": "address"
        }
      ],
      "stateMutability": "view",
      "type": "function",
      "constant": true
    },
    {
      "inputs": [],
      "name": "owner",
      "outputs": [
        {
          "internalType": "address",
          "name": "",
          "type": "address"
        }
      ],
      "stateMutability": "view",
      "type": "function",
      "constant": true
    },
    {
      "inputs": [],
      "name": "totalListings",
      "outputs": [
        {
          "internalType": "uint256",
          "name": "",
          "type": "uint256"
        }
      ],
      "stateMutability": "view",
      "type": "function",
      "constant": true
    },
    {
      "inputs": [
        {
          "internalType": "address",
          "name": "tokenAddress",
          "type": "address"
        },
        {
          "internalType": "uint256",
          "name": "tokenId",
          "type": "uint256"
        },
        {
          "internalType": "uint256",
          "name": "price",
          "type": "uint256"
        }
      ],
      "name": "createListing",
      "outputs": [
        {
          "internalType": "uint256",
          "name": "",
          "type": "uint256"
        }
      ],
      "stateMutability": "nonpayable",
      "type": "function"
    },
    {
      "inputs": [
        {
          "internalType": "uint256",
          "name": "listingId",
          "type": "uint256"
        }
      ],
      "name": "removeListing",
      "outputs": [
        {
          "internalType": "bool",
          "name": "",
          "type": "bool"
        }
      ],
      "stateMutability": "nonpayable",
      "type": "function"
    },
    {
      "inputs": [
        {
          "internalType": "uint256",
          "name": "listingId",
          "type": "uint256"
        }
      ],
      "name": "updatePrice",
      "outputs": [
        {
          "internalType": "bool",
          "name": "",
          "type": "bool"
        }
      ],
      "stateMutability": "nonpayable",
      "type": "function"
    },
    {
      "inputs": [
        {
          "internalType": "uint256",
          "name": "listingId",
          "type": "uint256"
        }
      ],
      "name": "purchaseListing",
      "outputs": [
        {
          "internalType": "bool",
          "name": "",
          "type": "bool"
        }
      ],
      "stateMutability": "payable",
      "type": "function",
      "payable": true
    },
    {
      "inputs": [
        {
          "internalType": "address",
          "name": "operator",
          "type": "address"
        },
        {
          "internalType": "address",
          "name": "from",
          "type": "address"
        },
        {
          "internalType": "uint256",
          "name": "tokenId",
          "type": "uint256"
        },
        {
          "internalType": "bytes",
          "name": "data",
          "type": "bytes"
        }
      ],
      "name": "onERC721Received",
      "outputs": [
        {
          "internalType": "bytes4",
          "name": "",
          "type": "bytes4"
        }
      ],
      "stateMutability": "pure",
      "type": "function",
      "constant": true
    }
  ],
  "bytecode": "0x608060405234801561001057600080fd5b50336000806101000a81548173ffffffffffffffffffffffffffffffffffffffff021916908373ffffffffffffffffffffffffffffffffffffffff1602179055506000600181905550610bb2806100686000396000f3fe60806040526004361061007b5760003560e01c80638d6cc56d1161004e5780638d6cc56d146101675780638da5cb5b146101a4578063c78b616c146101cf578063de74e57b146101fa5761007b565b8063150b7a0214610080578063169d5a7d146100bd57806324780c56146100ed578063479ad4c31461012a575b600080fd5b34801561008c57600080fd5b506100a760048036038101906100a291906107d1565b61023d565b6040516100b49190610894565b60405180910390f35b6100d760048036038101906100d291906108af565b61026b565b6040516100e491906108f7565b60405180910390f35b3480156100f957600080fd5b50610114600480360381019061010f9190610912565b610272565b6040516101219190610974565b60405180910390f35b34801561013657600080fd5b50610151600480360381019061014c91906108af565b610507565b60405161015e91906108f7565b60405180910390f35b34801561017357600080fd5b5061018e600480360381019061018991906108af565b61057e565b60405161019b91906108f7565b60405180910390f35b3480156101b057600080fd5b506101b96105f5565b6040516101c6919061099e565b60405180910390f35b3480156101db57600080fd5b506101e4610619565b6040516101f19190610974565b60405180910390f35b34801561020657600080fd5b50610221600480360381019061021c91906108af565b61061f565b6040516102349796959493929190610a51565b60405180910390f35b60007f150b7a023d4804d13e8c85fb27262cb750cf6ba9f9dd3bb30d90f482ceeb4b1f905095945050505050565b6000919050565b600060018060008282546102869190610aef565b925050819055506040518060e0016040528060015481526020018573ffffffffffffffffffffffffffffffffffffffff168152602001848152602001838152602001600060028111156102dc576102db6109b9565b5b81526020013373ffffffffffffffffffffffffffffffffffffffff168152602001600073ffffffffffffffffffffffffffffffffffffffff168152506002600060015481526020019081526020016000206000820151816000015560208201518160010160006101000a81548173ffffffffffffffffffffffffffffffffffffffff021916908373ffffffffffffffffffffffffffffffffffffffff160217905550604082015181600201556060820151816003015560808201518160040160006101000a81548160ff021916908360028111156103bd576103bc6109b9565b5b021790555060a08201518160040160016101000a81548173ffffffffffffffffffffffffffffffffffffffff021916908373ffffffffffffffffffffffffffffffffffffffff16021790555060c08201518160050160006101000a81548173ffffffffffffffffffffffffffffffffffffffff021916908373ffffffffffffffffffffffffffffffffffffffff1602179055509050508373ffffffffffffffffffffffffffffffffffffffff166342842e0e3330866040518463ffffffff1660e01b815260040161049093929190610b45565b600060405180830381600087803b1580156104aa57600080fd5b505af11580156104be573d6000803e3d6000fd5b505050507f9e237612f71f9b8fec1087d90872ad11daf6dfacd0f23e07bea88931b3a62cf66001546040516104f39190610974565b60405180910390a160015490509392505050565b6000813373ffffffffffffffffffffffffffffffffffffffff166002600083815260200190815260200160002060040160019054906101000a900473ffffffffffffffffffffffffffffffffffffffff1673ffffffffffffffffffffffffffffffffffffffff161461057857600080fd5b50919050565b6000813373ffffffffffffffffffffffffffffffffffffffff166002600083815260200190815260200160002060040160019054906101000a900473ffffffffffffffffffffffffffffffffffffffff1673ffffffffffffffffffffffffffffffffffffffff16146105ef57600080fd5b50919050565b60008054906101000a900473ffffffffffffffffffffffffffffffffffffffff1681565b60015481565b60026020528060005260406000206000915090508060000154908060010160009054906101000a900473ffffffffffffffffffffffffffffffffffffffff16908060020154908060030154908060040160009054906101000a900460ff16908060040160019054906101000a900473ffffffffffffffffffffffffffffffffffffffff16908060050160009054906101000a900473ffffffffffffffffffffffffffffffffffffffff16905087565b600080fd5b600080fd5b600073ffffffffffffffffffffffffffffffffffffffff82169050919050565b6000610703826106d8565b9050919050565b610713816106f8565b811461071e57600080fd5b50565b6000813590506107308161070a565b92915050565b6000819050919050565b61074981610736565b811461075457600080fd5b50565b60008135905061076681610740565b92915050565b600080fd5b600080fd5b600080fd5b60008083601f8401126107915761079061076c565b5b8235905067ffffffffffffffff8111156107ae576107ad610771565b5b6020830191508360018202830111156107ca576107c9610776565b5b9250929050565b6000806000806000608086880312156107ed576107ec6106ce565b5b60006107fb88828901610721565b955050602061080c88828901610721565b945050604061081d88828901610757565b935050606086013567ffffffffffffffff81111561083e5761083d6106d3565b5b61084a8882890161077b565b92509250509295509295909350565b60007fffffffff0000000000000000000000000000000000000000000000000000000082169050919050565b61088e81610859565b82525050565b60006020820190506108a96000830184610885565b92915050565b6000602082840312156108c5576108c46106ce565b5b60006108d384828501610757565b91505092915050565b60008115159050919050565b6108f1816108dc565b82525050565b600060208201905061090c60008301846108e8565b92915050565b60008060006060848603121561092b5761092a6106ce565b5b600061093986828701610721565b935050602061094a86828701610757565b925050604061095b86828701610757565b9150509250925092565b61096e81610736565b82525050565b60006020820190506109896000830184610965565b92915050565b610998816106f8565b82525050565b60006020820190506109b3600083018461098f565b92915050565b7f4e487b7100000000000000000000000000000000000000000000000000000000600052602160045260246000fd5b600381106109f9576109f86109b9565b5b50565b6000819050610a0a826109e8565b919050565b6000610a1a826109fc565b9050919050565b610a2a81610a0f565b82525050565b6000610a3b826106d8565b9050919050565b610a4b81610a30565b82525050565b600060e082019050610a66600083018a610965565b610a73602083018961098f565b610a806040830188610965565b610a8d6060830187610965565b610a9a6080830186610a21565b610aa760a0830185610a42565b610ab460c0830184610a42565b98975050505050505050565b7f4e487b7100000000000000000000000000000000000000000000000000000000600052601160045260246000fd5b6000610afa82610736565b9150610b0583610736565b9250827fffffffffffffffffffffffffffffffffffffffffffffffffffffffffffffffff03821115610b3a57610b39610ac0565b5b828201905092915050565b6000606082019050610b5a600083018661098f565b610b67602083018561098f565b610b746040830184610965565b94935050505056fea2646970667358221220cd67ff8765766f06936fac318081f80f8152708f669ab12dc7f784691333ea8764736f6c63430008090033",
  "immutableReferences": {},
  "source": "/// SPDX-License-Identifier: MIT\npragma solidity ^0.8.0;\n\nimport \"@openzeppelin/contracts/token/ERC721/ERC721.sol\";\n\n/// @title A smart contract to enable buying and selling of ERC721 tokens\n/// @author @kevsherman\n/// @notice Still a WIP, demo purposes only\ncontract MetaMarket is IERC721Receiver {\n  \n  /// Owner set when contract deployed\n  address public owner;\n  \n  /// Count of the total listings created\n  uint public totalListings;\n\n  /// The state of the Listing\n  enum State { ForSale, Sold, Cancelled }\n\n  /// Mapping from listingId to Listing\n  mapping(uint => Listing) public listings;\n\n  /// Struct of the Listing object, to store who is selling/buying what \n  struct Listing {\n    uint listingId;\n    address tokenContractAddress;\n    uint tokenContractId;\n    uint price;\n    State state;\n    address payable seller;\n    address payable buyer;\n  }\n\n  /* \n   * Events\n   */\n\n  /// @notice Event to be emitted when a new Listing has been created\n  /// @return the listing id for the created Listing\n  event LogNewListing(uint listingId);\n\n  /// @notice Event to be emitted when a Listing has been updated\n  /// @return the listing id for the updated Listing\n  event LogUpdatedListing(uint listingId);\n\n  /// @notice Event to be emitted when a Listing has been removed\n  /// @return the listing id for the removed Listing\n  event LogRemovedListing(uint listingId);\n\n  /// @notice Event emitted when a Listing has been updated\n  /// @return the listing id for the updated Listing\n  event LogSoldListing(uint listingId);\n\n  /* \n   * Modifiers\n   */\n\n  /// @notice Modifier to ensure that the msg.sender is the seller \n  modifier ensureSeller(uint listingId) {\n    require (listings[listingId].seller == msg.sender);\n    _;\n  }\n\n  /// @notice Modifier to ensure that the buyer has supplied enough ETH for the transaction\n  /// @dev Purchasing functionality not yet built\n  modifier paidEnough(uint listingId) {\n    //require (msg.value >= listings[listingId].price)\n    _;\n  }\n\n  /// @notice Modifier to be called after a purchase transaction to return excess funds\n  /// @dev Purchasing functionality not yet built\n  modifier returnExcess(uint listingId) {\n    _;\n    // uint _price = listings[listingId].price;\n    // uint amountToRefund = msg.value - _price;\n    // listings[listingId].buyer.transfer(amountToRefund);\n  }\n\n  /// @notice Initializes the contract by setting the owner and the totalListings variable.\n  constructor() {\n    owner = msg.sender;\n    totalListings = 0;\n  }\n\n  /// @notice Allow a seller to list an NFT for sale, transfer the token to the MetaMarket address\n  /// @dev The safeTransferFrom() handles ensuring ownership and approvals, so they aren't included as modifiers.\n  function createListing(address tokenAddress, uint tokenId, uint price) \n    public \n    returns(uint)\n  {\n    totalListings += 1; //Newly updated total count acts as unique ID for new listing\n    listings[totalListings] = Listing({\n      listingId: totalListings,\n      tokenContractAddress: tokenAddress,\n      tokenContractId: tokenId,\n      price: price,\n      state: State.ForSale,\n      seller: payable(msg.sender),\n      buyer: payable(address(0))\n    });\n\n    //Transfer the NFT to the MetaMarket contract address.\n    ERC721(tokenAddress).safeTransferFrom(msg.sender, address(this), tokenId);\n\n    emit LogNewListing(totalListings);\n    return totalListings; \n  }\n\n  /// @notice Allow a seller to remove the listing and get the token back from the MetaMarket address\n  /// @dev To Do:\n  ///      1. validate that msg.sender is the seller\n  ///      2. mark the item as 'cancelled'\n  ///      3. emit a LogRemovedListing event\n  ///      4. Return a bool for success/failure\n  function removeListing(uint listingId) \n    public\n    ensureSeller(listingId)\n    returns(bool)\n  {\n\n  }\n\n  /// @notice Allow a seller to update the listing price\n  /// @dev To Do:\n  ///      1. validate it is the seller attempting to update the listing\n  ///      2. validate that msg.sender is the seller\n  ///      3. emit a LogUpdatedListing event\n  ///      4. Return a bool for success/failure\n  function updatePrice(uint listingId)\n    public\n    ensureSeller(listingId)\n    returns(bool)\n  {\n\n  }\n\n\n  /// @notice Allow a buyer to update the listing price\n  /// @dev To Do: \n  ///        1. validate the transaction has sufficient eth\n  ///        2. transfer eth to seller\n  ///        3. transfer nft to buyer\n  ///        4. mark listing as Sold\n  ///        5. return any excess funds to buyer\n  ///        6. return a bool for success/failure\n  function purchaseListing(uint listingId) \n    public \n    payable\n    paidEnough(listingId)\n    returnExcess(listingId)\n    returns(bool)\n  {\n\n  } \n\n  /// @notice Override function to allow for recieving ERC721 tokens\n  /// @dev Figure out how to remove warning re: unused variables\n  function onERC721Received(\n    /* solhint-disable */\n      address operator,\n      address from,\n      uint256 tokenId,\n      bytes calldata data\n    /* solhint-enable */\n    ) external pure override returns (bytes4) {\n      return bytes4(keccak256(\"onERC721Received(address,address,uint256,bytes)\"));\n  }\n}\n",
  "sourcePath": "/Users/kevinshouse/Projects/BlockchainBootcamp/blockchain-developer-bootcamp-final-project/contracts/MetaMarket.sol",
  "compiler": {
    "name": "solc",
    "version": "0.8.9+commit.e5eed63a.Emscripten.clang"
  },
  "schemaVersion": "3.4.3",
  "updatedAt": "2021-11-29T23:05:55.991Z",
  "networkType": "ethereum",
  "devdoc": {
    "author": "@kevsherman",
    "kind": "dev",
    "methods": {
      "createListing(address,uint256,uint256)": {
        "details": "The safeTransferFrom() handles ensuring ownership and approvals, so they aren't included as modifiers."
      },
      "onERC721Received(address,address,uint256,bytes)": {
        "details": "Figure out how to remove warning re: unused variables"
      },
      "purchaseListing(uint256)": {
        "details": "To Do:         1. validate the transaction has sufficient eth        2. transfer eth to seller        3. transfer nft to buyer        4. mark listing as Sold        5. return any excess funds to buyer        6. return a bool for success/failure"
      },
      "removeListing(uint256)": {
        "details": "To Do:      1. validate that msg.sender is the seller      2. mark the item as 'cancelled'      3. emit a LogRemovedListing event      4. Return a bool for success/failure"
      },
      "updatePrice(uint256)": {
        "details": "To Do:      1. validate it is the seller attempting to update the listing      2. validate that msg.sender is the seller      3. emit a LogUpdatedListing event      4. Return a bool for success/failure"
      }
    },
    "title": "A smart contract to enable buying and selling of ERC721 tokens",
    "version": 1
  },
  "userdoc": {
    "events": {
      "LogNewListing(uint256)": {
        "notice": "Event to be emitted when a new Listing has been created"
      },
      "LogRemovedListing(uint256)": {
        "notice": "Event to be emitted when a Listing has been removed"
      },
      "LogSoldListing(uint256)": {
        "notice": "Event emitted when a Listing has been updated"
      },
      "LogUpdatedListing(uint256)": {
        "notice": "Event to be emitted when a Listing has been updated"
      }
    },
    "kind": "user",
    "methods": {
      "constructor": {
        "notice": "Initializes the contract by setting the owner and the totalListings variable."
      },
      "createListing(address,uint256,uint256)": {
        "notice": "Allow a seller to list an NFT for sale, transfer the token to the MetaMarket address"
      },
      "listings(uint256)": {
        "notice": "Mapping from listingId to Listing"
      },
      "onERC721Received(address,address,uint256,bytes)": {
        "notice": "Override function to allow for recieving ERC721 tokens"
      },
      "owner()": {
        "notice": "Owner set when contract deployed"
      },
      "purchaseListing(uint256)": {
        "notice": "Allow a buyer to update the listing price"
      },
      "removeListing(uint256)": {
        "notice": "Allow a seller to remove the listing and get the token back from the MetaMarket address"
      },
      "totalListings()": {
        "notice": "Count of the total listings created"
      },
      "updatePrice(uint256)": {
        "notice": "Allow a seller to update the listing price"
      }
    },
    "notice": "Still a WIP, demo purposes only",
    "version": 1
  }
}