{
  "contractName": "MetaMarket",
  "abi": [
    {
      "inputs": [],
      "stateMutability": "nonpayable",
      "type": "constructor"
    },
    {
      "anonymous": false,
      "inputs": [
        {
          "indexed": false,
          "internalType": "uint256",
          "name": "listingId",
          "type": "uint256"
        }
      ],
      "name": "LogNewListing",
      "type": "event"
    },
    {
      "anonymous": false,
      "inputs": [
        {
          "indexed": false,
          "internalType": "uint256",
          "name": "listingId",
          "type": "uint256"
        }
      ],
      "name": "LogRemovedListing",
      "type": "event"
    },
    {
      "anonymous": false,
      "inputs": [
        {
          "indexed": false,
          "internalType": "uint256",
          "name": "listingId",
          "type": "uint256"
        }
      ],
      "name": "LogSoldListing",
      "type": "event"
    },
    {
      "anonymous": false,
      "inputs": [
        {
          "indexed": false,
          "internalType": "uint256",
          "name": "listingId",
          "type": "uint256"
        }
      ],
      "name": "LogUpdatedListing",
      "type": "event"
    },
    {
      "inputs": [
        {
          "internalType": "uint256",
          "name": "",
          "type": "uint256"
        }
      ],
      "name": "listings",
      "outputs": [
        {
          "internalType": "uint256",
          "name": "listingId",
          "type": "uint256"
        },
        {
          "internalType": "uint256",
          "name": "price",
          "type": "uint256"
        },
        {
          "internalType": "enum MetaMarket.State",
          "name": "state",
          "type": "uint8"
        },
        {
          "internalType": "address payable",
          "name": "seller",
          "type": "address"
        },
        {
          "internalType": "address payable",
          "name": "buyer",
          "type": "address"
        }
      ],
      "stateMutability": "view",
      "type": "function",
      "constant": true
    },
    {
      "inputs": [],
      "name": "owner",
      "outputs": [
        {
          "internalType": "address",
          "name": "",
          "type": "address"
        }
      ],
      "stateMutability": "view",
      "type": "function",
      "constant": true
    },
    {
      "inputs": [],
      "name": "totalListings",
      "outputs": [
        {
          "internalType": "uint256",
          "name": "",
          "type": "uint256"
        }
      ],
      "stateMutability": "view",
      "type": "function",
      "constant": true
    },
    {
      "inputs": [],
      "name": "whoSentMe",
      "outputs": [
        {
          "internalType": "address",
          "name": "",
          "type": "address"
        }
      ],
      "stateMutability": "view",
      "type": "function",
      "constant": true
    },
    {
      "inputs": [
        {
          "internalType": "address",
          "name": "tokenAddress",
          "type": "address"
        },
        {
          "internalType": "uint256",
          "name": "tokenId",
          "type": "uint256"
        },
        {
          "internalType": "uint256",
          "name": "price",
          "type": "uint256"
        }
      ],
      "name": "createListing",
      "outputs": [
        {
          "internalType": "uint256",
          "name": "",
          "type": "uint256"
        }
      ],
      "stateMutability": "nonpayable",
      "type": "function"
    },
    {
      "inputs": [
        {
          "internalType": "uint256",
          "name": "listingId",
          "type": "uint256"
        }
      ],
      "name": "removeListing",
      "outputs": [
        {
          "internalType": "bool",
          "name": "",
          "type": "bool"
        }
      ],
      "stateMutability": "nonpayable",
      "type": "function"
    },
    {
      "inputs": [
        {
          "internalType": "uint256",
          "name": "listingId",
          "type": "uint256"
        }
      ],
      "name": "updatePrice",
      "outputs": [
        {
          "internalType": "bool",
          "name": "",
          "type": "bool"
        }
      ],
      "stateMutability": "nonpayable",
      "type": "function"
    },
    {
      "inputs": [
        {
          "internalType": "uint256",
          "name": "listingId",
          "type": "uint256"
        }
      ],
      "name": "purchaseListing",
      "outputs": [
        {
          "internalType": "bool",
          "name": "",
          "type": "bool"
        }
      ],
      "stateMutability": "payable",
      "type": "function",
      "payable": true
    }
  ],
  "bytecode": "0x608060405234801561001057600080fd5b50336000806101000a81548173ffffffffffffffffffffffffffffffffffffffff021916908373ffffffffffffffffffffffffffffffffffffffff16021790555060006001819055506107b8806100686000396000f3fe60806040526004361061007b5760003560e01c80638d6cc56d1161004e5780638d6cc56d146101555780638da5cb5b14610192578063c78b616c146101bd578063de74e57b146101e85761007b565b8063169d5a7d1461008057806324780c56146100b05780633a9ebd23146100ed578063479ad4c314610118575b600080fd5b61009a600480360381019061009591906104aa565b610229565b6040516100a791906104f2565b60405180910390f35b3480156100bc57600080fd5b506100d760048036038101906100d2919061056b565b610230565b6040516100e491906105cd565b60405180910390f35b3480156100f957600080fd5b506101026103ac565b60405161010f91906105f7565b60405180910390f35b34801561012457600080fd5b5061013f600480360381019061013a91906104aa565b6103b4565b60405161014c91906104f2565b60405180910390f35b34801561016157600080fd5b5061017c600480360381019061017791906104aa565b6103bb565b60405161018991906104f2565b60405180910390f35b34801561019e57600080fd5b506101a76103c2565b6040516101b491906105f7565b60405180910390f35b3480156101c957600080fd5b506101d26103e6565b6040516101df91906105cd565b60405180910390f35b3480156101f457600080fd5b5061020f600480360381019061020a91906104aa565b6103ec565b6040516102209594939291906106aa565b60405180910390f35b6000919050565b6000838460006001806000828254610248919061072c565b92505081905590506040518060a001604052808281526020018681526020016000600281111561027b5761027a610612565b5b81526020013373ffffffffffffffffffffffffffffffffffffffff168152602001600073ffffffffffffffffffffffffffffffffffffffff1681525060026000838152602001908152602001600020600082015181600001556020820151816001015560408201518160020160006101000a81548160ff0219169083600281111561030957610308610612565b5b021790555060608201518160020160016101000a81548173ffffffffffffffffffffffffffffffffffffffff021916908373ffffffffffffffffffffffffffffffffffffffff16021790555060808201518160030160006101000a81548173ffffffffffffffffffffffffffffffffffffffff021916908373ffffffffffffffffffffffffffffffffffffffff1602179055509050508093505050509392505050565b600033905090565b6000919050565b6000919050565b60008054906101000a900473ffffffffffffffffffffffffffffffffffffffff1681565b60015481565b60026020528060005260406000206000915090508060000154908060010154908060020160009054906101000a900460ff16908060020160019054906101000a900473ffffffffffffffffffffffffffffffffffffffff16908060030160009054906101000a900473ffffffffffffffffffffffffffffffffffffffff16905085565b600080fd5b6000819050919050565b61048781610474565b811461049257600080fd5b50565b6000813590506104a48161047e565b92915050565b6000602082840312156104c0576104bf61046f565b5b60006104ce84828501610495565b91505092915050565b60008115159050919050565b6104ec816104d7565b82525050565b600060208201905061050760008301846104e3565b92915050565b600073ffffffffffffffffffffffffffffffffffffffff82169050919050565b60006105388261050d565b9050919050565b6105488161052d565b811461055357600080fd5b50565b6000813590506105658161053f565b92915050565b6000806000606084860312156105845761058361046f565b5b600061059286828701610556565b93505060206105a386828701610495565b92505060406105b486828701610495565b9150509250925092565b6105c781610474565b82525050565b60006020820190506105e260008301846105be565b92915050565b6105f18161052d565b82525050565b600060208201905061060c60008301846105e8565b92915050565b7f4e487b7100000000000000000000000000000000000000000000000000000000600052602160045260246000fd5b6003811061065257610651610612565b5b50565b600081905061066382610641565b919050565b600061067382610655565b9050919050565b61068381610668565b82525050565b60006106948261050d565b9050919050565b6106a481610689565b82525050565b600060a0820190506106bf60008301886105be565b6106cc60208301876105be565b6106d9604083018661067a565b6106e6606083018561069b565b6106f3608083018461069b565b9695505050505050565b7f4e487b7100000000000000000000000000000000000000000000000000000000600052601160045260246000fd5b600061073782610474565b915061074283610474565b9250827fffffffffffffffffffffffffffffffffffffffffffffffffffffffffffffffff03821115610777576107766106fd565b5b82820190509291505056fea2646970667358221220a13b3788e6b0ec9e4f4e583b1fba230a4d92b0dba3077c87e1787a922bff95fe64736f6c63430008090033",
  "immutableReferences": {},
  "source": "// SPDX-License-Identifier: MIT\npragma solidity >=0.4.22 <0.9.0;\n\nimport \"@openzeppelin/contracts/token/ERC721/ERC721.sol\";\nimport \"@openzeppelin/contracts/access/Ownable.sol\";\n\n// contract MetaMarket is Ownable, IERC721Receiver {\ncontract MetaMarket {\n  address public owner;\n  uint public totalListings;\n  enum State { ForSale, Sold, Cancelled }\n  mapping(uint => Listing) public listings;\n\n  struct Listing {\n    uint listingId;\n    uint price;\n    State state;\n    address payable seller;\n    address payable buyer;\n  }\n\n  \n  /* \n   * Events\n   */\n\n  event LogNewListing(uint listingId);\n  event LogUpdatedListing(uint listingId);\n  event LogRemovedListing(uint listingId);\n  event LogSoldListing(uint listingId);\n\n  /* \n   * Modifiers\n   */\n\n  modifier validToken(address tokenAddress) {\n    //require(token at tokenAddress.included in acceptable token types) \n    _;\n  }\n\n  modifier ensureTokenOwnership(address tokenAddress) {\n    //require( token actually belongs to seller)\n    _;\n  }\n\n  modifier ensureSeller(uint listingId) {\n    //require (listings[listingId].seller == msg.sender)\n    _;\n  }\n\n  modifier paidEnough(uint listingId) {\n    //require (msg.value >= listings[listingId].price)\n    _;\n  }\n\n  modifier returnExcess(uint listingId) {\n    _;\n    // uint _price = listings[listingId].price;\n    // uint amountToRefund = msg.value - _price;\n    // listings[listingId].buyer.transfer(amountToRefund);\n  }\n\n  constructor() {\n    owner = msg.sender;\n    totalListings = 0;\n  }\n\n\n  // Allow a seller to list an NFT for sale on the platform\n  // 1. Ensures the NFT address is of a specific token type\n  // 2. Persist: \n  // - seller address\n  // - NFT item details: token address, name, any other required data\n  // - sale price\n  // 3. Emit an event\n  // 4. Return the listingId;\n\n  function whoSentMe() \n    public\n    view\n    returns(address)\n  {\n    return msg.sender;\n  }\n\n  function createListing(address tokenAddress, uint tokenId, uint price) \n    public \n    validToken(tokenAddress) \n    ensureTokenOwnership(tokenAddress)\n    returns(uint)\n  {\n    //Add entry to listing hash\n    uint listingId = totalListings += 1;\n    listings[listingId] = Listing({\n      listingId: listingId,\n      price: price,\n      state: State.ForSale,\n      seller: payable(msg.sender),\n      buyer: payable(address(0))\n    });\n\n    //Transfer the NFT to the WorldSwap address\n    // ERC721(tokenAddress).safeTransferFrom(msg.sender, address(this), tokenId);\n\n    return listingId;\n  }\n\n  // Allow a seller to remove the listing\n  // 1. validate it is the seller attempting to remove the listing\n  // 2. mark the item as 'cancelled'\n  // 3. emit an event\n  // 4. Return a bool for success/failure\n\n  function removeListing(uint listingId) \n    public\n    ensureSeller(listingId)\n    returns(bool)\n  {\n\n  }\n\n  // Allow a seller to update the listing price\n  // 1. validate its the seller attempting to update the listing\n  // 2. update the listing\n  // 3. emit an event\n  // 4. Return a bool for success/failure\n  function updatePrice(uint listingId)\n    public\n    ensureSeller(listingId)\n    returns(bool)\n  {\n\n  }\n\n\n  // Allow a buyer to purchase the listing for the asking price\n  // 1. validate the transaction has sufficient eth\n  // 2. transfer eth to seller\n  // 3. transfer nft to buyer\n  // 4. mark listing as Sold\n  // 5. return any excess funds to buyer\n  // 5. return a bool for success/failure\n\n  function purchaseListing(uint listingId) \n    public \n    payable\n    paidEnough(listingId)\n    returnExcess(listingId)\n    returns(bool)\n  {\n\n  } \n}\n",
  "sourcePath": "/Users/kevinshouse/Projects/BlockchainBootcamp/blockchain-developer-bootcamp-final-project/contracts/MetaMarket.sol",
  "compiler": {
    "name": "solc",
    "version": "0.8.9+commit.e5eed63a.Emscripten.clang"
  },
  "schemaVersion": "3.4.3",
  "updatedAt": "2021-11-24T21:23:41.147Z",
  "networkType": "ethereum",
  "devdoc": {
    "kind": "dev",
    "methods": {},
    "version": 1
  },
  "userdoc": {
    "kind": "user",
    "methods": {},
    "version": 1
  }
}