{
  "contractName": "WorldSwapToken",
  "abi": [
    {
      "inputs": [],
      "stateMutability": "nonpayable",
      "type": "constructor"
    },
    {
      "anonymous": false,
      "inputs": [
        {
          "indexed": true,
          "internalType": "address",
          "name": "owner",
          "type": "address"
        },
        {
          "indexed": true,
          "internalType": "address",
          "name": "approved",
          "type": "address"
        },
        {
          "indexed": true,
          "internalType": "uint256",
          "name": "tokenId",
          "type": "uint256"
        }
      ],
      "name": "Approval",
      "type": "event"
    },
    {
      "anonymous": false,
      "inputs": [
        {
          "indexed": true,
          "internalType": "address",
          "name": "owner",
          "type": "address"
        },
        {
          "indexed": true,
          "internalType": "address",
          "name": "operator",
          "type": "address"
        },
        {
          "indexed": false,
          "internalType": "bool",
          "name": "approved",
          "type": "bool"
        }
      ],
      "name": "ApprovalForAll",
      "type": "event"
    },
    {
      "anonymous": false,
      "inputs": [
        {
          "indexed": true,
          "internalType": "address",
          "name": "from",
          "type": "address"
        },
        {
          "indexed": true,
          "internalType": "address",
          "name": "to",
          "type": "address"
        },
        {
          "indexed": true,
          "internalType": "uint256",
          "name": "tokenId",
          "type": "uint256"
        }
      ],
      "name": "Transfer",
      "type": "event"
    },
    {
      "inputs": [
        {
          "internalType": "address",
          "name": "to",
          "type": "address"
        },
        {
          "internalType": "uint256",
          "name": "tokenId",
          "type": "uint256"
        }
      ],
      "name": "approve",
      "outputs": [],
      "stateMutability": "nonpayable",
      "type": "function"
    },
    {
      "inputs": [
        {
          "internalType": "address",
          "name": "owner",
          "type": "address"
        }
      ],
      "name": "balanceOf",
      "outputs": [
        {
          "internalType": "uint256",
          "name": "",
          "type": "uint256"
        }
      ],
      "stateMutability": "view",
      "type": "function",
      "constant": true
    },
    {
      "inputs": [
        {
          "internalType": "uint256",
          "name": "tokenId",
          "type": "uint256"
        }
      ],
      "name": "getApproved",
      "outputs": [
        {
          "internalType": "address",
          "name": "",
          "type": "address"
        }
      ],
      "stateMutability": "view",
      "type": "function",
      "constant": true
    },
    {
      "inputs": [
        {
          "internalType": "address",
          "name": "owner",
          "type": "address"
        },
        {
          "internalType": "address",
          "name": "operator",
          "type": "address"
        }
      ],
      "name": "isApprovedForAll",
      "outputs": [
        {
          "internalType": "bool",
          "name": "",
          "type": "bool"
        }
      ],
      "stateMutability": "view",
      "type": "function",
      "constant": true
    },
    {
      "inputs": [],
      "name": "name",
      "outputs": [
        {
          "internalType": "string",
          "name": "",
          "type": "string"
        }
      ],
      "stateMutability": "view",
      "type": "function",
      "constant": true
    },
    {
      "inputs": [
        {
          "internalType": "uint256",
          "name": "tokenId",
          "type": "uint256"
        }
      ],
      "name": "ownerOf",
      "outputs": [
        {
          "internalType": "address",
          "name": "",
          "type": "address"
        }
      ],
      "stateMutability": "view",
      "type": "function",
      "constant": true
    },
    {
      "inputs": [
        {
          "internalType": "address",
          "name": "from",
          "type": "address"
        },
        {
          "internalType": "address",
          "name": "to",
          "type": "address"
        },
        {
          "internalType": "uint256",
          "name": "tokenId",
          "type": "uint256"
        }
      ],
      "name": "safeTransferFrom",
      "outputs": [],
      "stateMutability": "nonpayable",
      "type": "function"
    },
    {
      "inputs": [
        {
          "internalType": "address",
          "name": "from",
          "type": "address"
        },
        {
          "internalType": "address",
          "name": "to",
          "type": "address"
        },
        {
          "internalType": "uint256",
          "name": "tokenId",
          "type": "uint256"
        },
        {
          "internalType": "bytes",
          "name": "_data",
          "type": "bytes"
        }
      ],
      "name": "safeTransferFrom",
      "outputs": [],
      "stateMutability": "nonpayable",
      "type": "function"
    },
    {
      "inputs": [
        {
          "internalType": "address",
          "name": "operator",
          "type": "address"
        },
        {
          "internalType": "bool",
          "name": "approved",
          "type": "bool"
        }
      ],
      "name": "setApprovalForAll",
      "outputs": [],
      "stateMutability": "nonpayable",
      "type": "function"
    },
    {
      "inputs": [],
      "name": "symbol",
      "outputs": [
        {
          "internalType": "string",
          "name": "",
          "type": "string"
        }
      ],
      "stateMutability": "view",
      "type": "function",
      "constant": true
    },
    {
      "inputs": [
        {
          "internalType": "uint256",
          "name": "index",
          "type": "uint256"
        }
      ],
      "name": "tokenByIndex",
      "outputs": [
        {
          "internalType": "uint256",
          "name": "",
          "type": "uint256"
        }
      ],
      "stateMutability": "view",
      "type": "function",
      "constant": true
    },
    {
      "inputs": [
        {
          "internalType": "address",
          "name": "owner",
          "type": "address"
        },
        {
          "internalType": "uint256",
          "name": "index",
          "type": "uint256"
        }
      ],
      "name": "tokenOfOwnerByIndex",
      "outputs": [
        {
          "internalType": "uint256",
          "name": "",
          "type": "uint256"
        }
      ],
      "stateMutability": "view",
      "type": "function",
      "constant": true
    },
    {
      "inputs": [],
      "name": "totalSupply",
      "outputs": [
        {
          "internalType": "uint256",
          "name": "",
          "type": "uint256"
        }
      ],
      "stateMutability": "view",
      "type": "function",
      "constant": true
    },
    {
      "inputs": [
        {
          "internalType": "address",
          "name": "from",
          "type": "address"
        },
        {
          "internalType": "address",
          "name": "to",
          "type": "address"
        },
        {
          "internalType": "uint256",
          "name": "tokenId",
          "type": "uint256"
        }
      ],
      "name": "transferFrom",
      "outputs": [],
      "stateMutability": "nonpayable",
      "type": "function"
    },
    {
      "inputs": [
        {
          "internalType": "address",
          "name": "user",
          "type": "address"
        },
        {
          "internalType": "string",
          "name": "tokenURI",
          "type": "string"
        }
      ],
      "name": "awardToken",
      "outputs": [
        {
          "internalType": "uint256",
          "name": "",
          "type": "uint256"
        }
      ],
      "stateMutability": "nonpayable",
      "type": "function"
    },
    {
      "inputs": [
        {
          "internalType": "uint256",
          "name": "tokenId",
          "type": "uint256"
        }
      ],
      "name": "tokenURI",
      "outputs": [
        {
          "internalType": "string",
          "name": "",
          "type": "string"
        }
      ],
      "stateMutability": "view",
      "type": "function",
      "constant": true
    },
    {
      "inputs": [
        {
          "internalType": "bytes4",
          "name": "interfaceId",
          "type": "bytes4"
        }
      ],
      "name": "supportsInterface",
      "outputs": [
        {
          "internalType": "bool",
          "name": "",
          "type": "bool"
        }
      ],
      "stateMutability": "view",
      "type": "function",
      "constant": true
    }
  ],
  "bytecode": "0x60806040523480156200001157600080fd5b506040518060400160405280600e81526020017f576f726c6453776170546f6b656e0000000000000000000000000000000000008152506040518060400160405280600481526020017f5357415000000000000000000000000000000000000000000000000000000000815250816000908051906020019062000096929190620000b8565b508060019080519060200190620000af929190620000b8565b505050620001cd565b828054620000c69062000197565b90600052602060002090601f016020900481019282620000ea576000855562000136565b82601f106200010557805160ff191683800117855562000136565b8280016001018555821562000136579182015b828111156200013557825182559160200191906001019062000118565b5b50905062000145919062000149565b5090565b5b80821115620001645760008160009055506001016200014a565b5090565b7f4e487b7100000000000000000000000000000000000000000000000000000000600052602260045260246000fd5b60006002820490506001821680620001b057607f821691505b60208210811415620001c757620001c662000168565b5b50919050565b61338080620001dd6000396000f3fe608060405234801561001057600080fd5b506004361061010b5760003560e01c80634f6ccce7116100a257806395d89b411161007157806395d89b41146102f0578063a22cb4651461030e578063b88d4fde1461032a578063c87b56dd14610346578063e985e9c5146103765761010b565b80634f6ccce71461023057806362068d60146102605780636352211e1461029057806370a08231146102c05761010b565b806318160ddd116100de57806318160ddd146101aa57806323b872dd146101c85780632f745c59146101e457806342842e0e146102145761010b565b806301ffc9a71461011057806306fdde0314610140578063081812fc1461015e578063095ea7b31461018e575b600080fd5b61012a60048036038101906101259190611f8f565b6103a6565b6040516101379190611fd7565b60405180910390f35b6101486103b8565b604051610155919061208b565b60405180910390f35b610178600480360381019061017391906120e3565b61044a565b6040516101859190612151565b60405180910390f35b6101a860048036038101906101a39190612198565b6104cf565b005b6101b26105e7565b6040516101bf91906121e7565b60405180910390f35b6101e260048036038101906101dd9190612202565b6105f4565b005b6101fe60048036038101906101f99190612198565b610654565b60405161020b91906121e7565b60405180910390f35b61022e60048036038101906102299190612202565b6106f9565b005b61024a600480360381019061024591906120e3565b610719565b60405161025791906121e7565b60405180910390f35b61027a6004803603810190610275919061238a565b61078a565b60405161028791906121e7565b60405180910390f35b6102aa60048036038101906102a591906120e3565b6107c2565b6040516102b79190612151565b60405180910390f35b6102da60048036038101906102d591906123e6565b610874565b6040516102e791906121e7565b60405180910390f35b6102f861092c565b604051610305919061208b565b60405180910390f35b6103286004803603810190610323919061243f565b6109be565b005b610344600480360381019061033f9190612520565b610b3f565b005b610360600480360381019061035b91906120e3565b610ba1565b60405161036d919061208b565b60405180910390f35b610390600480360381019061038b91906125a3565b610bb3565b60405161039d9190611fd7565b60405180910390f35b60006103b182610c47565b9050919050565b6060600080546103c790612612565b80601f01602080910402602001604051908101604052809291908181526020018280546103f390612612565b80156104405780601f1061041557610100808354040283529160200191610440565b820191906000526020600020905b81548152906001019060200180831161042357829003601f168201915b5050505050905090565b600061045582610cc1565b610494576040517f08c379a000000000000000000000000000000000000000000000000000000000815260040161048b906126b6565b60405180910390fd5b6004600083815260200190815260200160002060009054906101000a900473ffffffffffffffffffffffffffffffffffffffff169050919050565b60006104da826107c2565b90508073ffffffffffffffffffffffffffffffffffffffff168373ffffffffffffffffffffffffffffffffffffffff16141561054b576040517f08c379a000000000000000000000000000000000000000000000000000000000815260040161054290612748565b60405180910390fd5b8073ffffffffffffffffffffffffffffffffffffffff1661056a610d2d565b73ffffffffffffffffffffffffffffffffffffffff161480610599575061059881610593610d2d565b610bb3565b5b6105d8576040517f08c379a00000000000000000000000000000000000000000000000000000000081526004016105cf906127da565b60405180910390fd5b6105e28383610d35565b505050565b6000600980549050905090565b6106056105ff610d2d565b82610dee565b610644576040517f08c379a000000000000000000000000000000000000000000000000000000000815260040161063b9061286c565b60405180910390fd5b61064f838383610ecc565b505050565b600061065f83610874565b82106106a0576040517f08c379a0000000000000000000000000000000000000000000000000000000008152600401610697906128fe565b60405180910390fd5b600760008473ffffffffffffffffffffffffffffffffffffffff1673ffffffffffffffffffffffffffffffffffffffff168152602001908152602001600020600083815260200190815260200160002054905092915050565b61071483838360405180602001604052806000815250610b3f565b505050565b60006107236105e7565b8210610764576040517f08c379a000000000000000000000000000000000000000000000000000000000815260040161075b90612990565b60405180910390fd5b60098281548110610778576107776129b0565b5b90600052602060002001549050919050565b6000610796600b611128565b60006107a2600b61113e565b90506107ae848261114c565b6107b8818461131a565b8091505092915050565b6000806002600084815260200190815260200160002060009054906101000a900473ffffffffffffffffffffffffffffffffffffffff169050600073ffffffffffffffffffffffffffffffffffffffff168173ffffffffffffffffffffffffffffffffffffffff16141561086b576040517f08c379a000000000000000000000000000000000000000000000000000000000815260040161086290612a51565b60405180910390fd5b80915050919050565b60008073ffffffffffffffffffffffffffffffffffffffff168273ffffffffffffffffffffffffffffffffffffffff1614156108e5576040517f08c379a00000000000000000000000000000000000000000000000000000000081526004016108dc90612ae3565b60405180910390fd5b600360008373ffffffffffffffffffffffffffffffffffffffff1673ffffffffffffffffffffffffffffffffffffffff168152602001908152602001600020549050919050565b60606001805461093b90612612565b80601f016020809104026020016040519081016040528092919081815260200182805461096790612612565b80156109b45780601f10610989576101008083540402835291602001916109b4565b820191906000526020600020905b81548152906001019060200180831161099757829003601f168201915b5050505050905090565b6109c6610d2d565b73ffffffffffffffffffffffffffffffffffffffff168273ffffffffffffffffffffffffffffffffffffffff161415610a34576040517f08c379a0000000000000000000000000000000000000000000000000000000008152600401610a2b90612b4f565b60405180910390fd5b8060056000610a41610d2d565b73ffffffffffffffffffffffffffffffffffffffff1673ffffffffffffffffffffffffffffffffffffffff16815260200190815260200160002060008473ffffffffffffffffffffffffffffffffffffffff1673ffffffffffffffffffffffffffffffffffffffff16815260200190815260200160002060006101000a81548160ff0219169083151502179055508173ffffffffffffffffffffffffffffffffffffffff16610aee610d2d565b73ffffffffffffffffffffffffffffffffffffffff167f17307eab39ab6107e8899845ad3d59bd9653f200f220920489ca2b5937696c3183604051610b339190611fd7565b60405180910390a35050565b610b50610b4a610d2d565b83610dee565b610b8f576040517f08c379a0000000000000000000000000000000000000000000000000000000008152600401610b869061286c565b60405180910390fd5b610b9b8484848461138e565b50505050565b6060610bac826113ea565b9050919050565b6000600560008473ffffffffffffffffffffffffffffffffffffffff1673ffffffffffffffffffffffffffffffffffffffff16815260200190815260200160002060008373ffffffffffffffffffffffffffffffffffffffff1673ffffffffffffffffffffffffffffffffffffffff16815260200190815260200160002060009054906101000a900460ff16905092915050565b60007f780e9d63000000000000000000000000000000000000000000000000000000007bffffffffffffffffffffffffffffffffffffffffffffffffffffffff1916827bffffffffffffffffffffffffffffffffffffffffffffffffffffffff19161480610cba5750610cb98261153c565b5b9050919050565b60008073ffffffffffffffffffffffffffffffffffffffff166002600084815260200190815260200160002060009054906101000a900473ffffffffffffffffffffffffffffffffffffffff1673ffffffffffffffffffffffffffffffffffffffff1614159050919050565b600033905090565b816004600083815260200190815260200160002060006101000a81548173ffffffffffffffffffffffffffffffffffffffff021916908373ffffffffffffffffffffffffffffffffffffffff160217905550808273ffffffffffffffffffffffffffffffffffffffff16610da8836107c2565b73ffffffffffffffffffffffffffffffffffffffff167f8c5be1e5ebec7d5bd14f71427d1e84f3dd0314c0f7b2291e5b200ac8c7c3b92560405160405180910390a45050565b6000610df982610cc1565b610e38576040517f08c379a0000000000000000000000000000000000000000000000000000000008152600401610e2f90612be1565b60405180910390fd5b6000610e43836107c2565b90508073ffffffffffffffffffffffffffffffffffffffff168473ffffffffffffffffffffffffffffffffffffffff161480610eb257508373ffffffffffffffffffffffffffffffffffffffff16610e9a8461044a565b73ffffffffffffffffffffffffffffffffffffffff16145b80610ec35750610ec28185610bb3565b5b91505092915050565b8273ffffffffffffffffffffffffffffffffffffffff16610eec826107c2565b73ffffffffffffffffffffffffffffffffffffffff1614610f42576040517f08c379a0000000000000000000000000000000000000000000000000000000008152600401610f3990612c73565b60405180910390fd5b600073ffffffffffffffffffffffffffffffffffffffff168273ffffffffffffffffffffffffffffffffffffffff161415610fb2576040517f08c379a0000000000000000000000000000000000000000000000000000000008152600401610fa990612d05565b60405180910390fd5b610fbd83838361161e565b610fc8600082610d35565b6001600360008573ffffffffffffffffffffffffffffffffffffffff1673ffffffffffffffffffffffffffffffffffffffff16815260200190815260200160002060008282546110189190612d54565b925050819055506001600360008473ffffffffffffffffffffffffffffffffffffffff1673ffffffffffffffffffffffffffffffffffffffff168152602001908152602001600020600082825461106f9190612d88565b92505081905550816002600083815260200190815260200160002060006101000a81548173ffffffffffffffffffffffffffffffffffffffff021916908373ffffffffffffffffffffffffffffffffffffffff160217905550808273ffffffffffffffffffffffffffffffffffffffff168473ffffffffffffffffffffffffffffffffffffffff167fddf252ad1be2c89b69c2b068fc378daa952ba7f163c4a11628f55a4df523b3ef60405160405180910390a4505050565b6001816000016000828254019250508190555050565b600081600001549050919050565b600073ffffffffffffffffffffffffffffffffffffffff168273ffffffffffffffffffffffffffffffffffffffff1614156111bc576040517f08c379a00000000000000000000000000000000000000000000000000000000081526004016111b390612e2a565b60405180910390fd5b6111c581610cc1565b15611205576040517f08c379a00000000000000000000000000000000000000000000000000000000081526004016111fc90612e96565b60405180910390fd5b6112116000838361161e565b6001600360008473ffffffffffffffffffffffffffffffffffffffff1673ffffffffffffffffffffffffffffffffffffffff16815260200190815260200160002060008282546112619190612d88565b92505081905550816002600083815260200190815260200160002060006101000a81548173ffffffffffffffffffffffffffffffffffffffff021916908373ffffffffffffffffffffffffffffffffffffffff160217905550808273ffffffffffffffffffffffffffffffffffffffff16600073ffffffffffffffffffffffffffffffffffffffff167fddf252ad1be2c89b69c2b068fc378daa952ba7f163c4a11628f55a4df523b3ef60405160405180910390a45050565b61132382610cc1565b611362576040517f08c379a000000000000000000000000000000000000000000000000000000000815260040161135990612f28565b60405180910390fd5b80600660008481526020019081526020016000209080519060200190611389929190611e80565b505050565b611399848484610ecc565b6113a58484848461162e565b6113e4576040517f08c379a00000000000000000000000000000000000000000000000000000000081526004016113db90612fba565b60405180910390fd5b50505050565b60606113f582610cc1565b611434576040517f08c379a000000000000000000000000000000000000000000000000000000000815260040161142b9061304c565b60405180910390fd5b600060066000848152602001908152602001600020805461145490612612565b80601f016020809104026020016040519081016040528092919081815260200182805461148090612612565b80156114cd5780601f106114a2576101008083540402835291602001916114cd565b820191906000526020600020905b8154815290600101906020018083116114b057829003601f168201915b5050505050905060006114de6117c5565b90506000815114156114f4578192505050611537565b6000825111156115295780826040516020016115119291906130a8565b60405160208183030381529060405292505050611537565b611532846117dc565b925050505b919050565b60007f80ac58cd000000000000000000000000000000000000000000000000000000007bffffffffffffffffffffffffffffffffffffffffffffffffffffffff1916827bffffffffffffffffffffffffffffffffffffffffffffffffffffffff1916148061160757507f5b5e139f000000000000000000000000000000000000000000000000000000007bffffffffffffffffffffffffffffffffffffffffffffffffffffffff1916827bffffffffffffffffffffffffffffffffffffffffffffffffffffffff1916145b80611617575061161682611883565b5b9050919050565b6116298383836118ed565b505050565b600061164f8473ffffffffffffffffffffffffffffffffffffffff16611a01565b156117b8578373ffffffffffffffffffffffffffffffffffffffff1663150b7a02611678610d2d565b8786866040518563ffffffff1660e01b815260040161169a9493929190613121565b602060405180830381600087803b1580156116b457600080fd5b505af19250505080156116e557506040513d601f19601f820116820180604052508101906116e29190613182565b60015b611768573d8060008114611715576040519150601f19603f3d011682016040523d82523d6000602084013e61171a565b606091505b50600081511415611760576040517f08c379a000000000000000000000000000000000000000000000000000000000815260040161175790612fba565b60405180910390fd5b805181602001fd5b63150b7a0260e01b7bffffffffffffffffffffffffffffffffffffffffffffffffffffffff1916817bffffffffffffffffffffffffffffffffffffffffffffffffffffffff1916149150506117bd565b600190505b949350505050565b606060405180602001604052806000815250905090565b60606117e782610cc1565b611826576040517f08c379a000000000000000000000000000000000000000000000000000000000815260040161181d90613221565b60405180910390fd5b60006118306117c5565b90506000815111611850576040518060200160405280600081525061187b565b8061185a84611a14565b60405160200161186b9291906130a8565b6040516020818303038152906040525b915050919050565b60007f01ffc9a7000000000000000000000000000000000000000000000000000000007bffffffffffffffffffffffffffffffffffffffffffffffffffffffff1916827bffffffffffffffffffffffffffffffffffffffffffffffffffffffff1916149050919050565b6118f8838383611b75565b600073ffffffffffffffffffffffffffffffffffffffff168373ffffffffffffffffffffffffffffffffffffffff16141561193b5761193681611b7a565b61197a565b8173ffffffffffffffffffffffffffffffffffffffff168373ffffffffffffffffffffffffffffffffffffffff1614611979576119788382611bc3565b5b5b600073ffffffffffffffffffffffffffffffffffffffff168273ffffffffffffffffffffffffffffffffffffffff1614156119bd576119b881611d30565b6119fc565b8273ffffffffffffffffffffffffffffffffffffffff168273ffffffffffffffffffffffffffffffffffffffff16146119fb576119fa8282611e01565b5b5b505050565b600080823b905060008111915050919050565b60606000821415611a5c576040518060400160405280600181526020017f30000000000000000000000000000000000000000000000000000000000000008152509050611b70565b600082905060005b60008214611a8e578080611a7790613241565b915050600a82611a8791906132b9565b9150611a64565b60008167ffffffffffffffff811115611aaa57611aa961225f565b5b6040519080825280601f01601f191660200182016040528015611adc5781602001600182028036833780820191505090505b5090505b60008514611b6957600182611af59190612d54565b9150600a85611b0491906132ea565b6030611b109190612d88565b60f81b818381518110611b2657611b256129b0565b5b60200101907effffffffffffffffffffffffffffffffffffffffffffffffffffffffffffff1916908160001a905350600a85611b6291906132b9565b9450611ae0565b8093505050505b919050565b505050565b600980549050600a600083815260200190815260200160002081905550600981908060018154018082558091505060019003906000526020600020016000909190919091505550565b60006001611bd084610874565b611bda9190612d54565b9050600060086000848152602001908152602001600020549050818114611cbf576000600760008673ffffffffffffffffffffffffffffffffffffffff1673ffffffffffffffffffffffffffffffffffffffff168152602001908152602001600020600084815260200190815260200160002054905080600760008773ffffffffffffffffffffffffffffffffffffffff1673ffffffffffffffffffffffffffffffffffffffff168152602001908152602001600020600084815260200190815260200160002081905550816008600083815260200190815260200160002081905550505b6008600084815260200190815260200160002060009055600760008573ffffffffffffffffffffffffffffffffffffffff1673ffffffffffffffffffffffffffffffffffffffff16815260200190815260200160002060008381526020019081526020016000206000905550505050565b60006001600980549050611d449190612d54565b90506000600a6000848152602001908152602001600020549050600060098381548110611d7457611d736129b0565b5b906000526020600020015490508060098381548110611d9657611d956129b0565b5b906000526020600020018190555081600a600083815260200190815260200160002081905550600a6000858152602001908152602001600020600090556009805480611de557611de461331b565b5b6001900381819060005260206000200160009055905550505050565b6000611e0c83610874565b905081600760008573ffffffffffffffffffffffffffffffffffffffff1673ffffffffffffffffffffffffffffffffffffffff168152602001908152602001600020600083815260200190815260200160002081905550806008600084815260200190815260200160002081905550505050565b828054611e8c90612612565b90600052602060002090601f016020900481019282611eae5760008555611ef5565b82601f10611ec757805160ff1916838001178555611ef5565b82800160010185558215611ef5579182015b82811115611ef4578251825591602001919060010190611ed9565b5b509050611f029190611f06565b5090565b5b80821115611f1f576000816000905550600101611f07565b5090565b6000604051905090565b600080fd5b600080fd5b60007fffffffff0000000000000000000000000000000000000000000000000000000082169050919050565b611f6c81611f37565b8114611f7757600080fd5b50565b600081359050611f8981611f63565b92915050565b600060208284031215611fa557611fa4611f2d565b5b6000611fb384828501611f7a565b91505092915050565b60008115159050919050565b611fd181611fbc565b82525050565b6000602082019050611fec6000830184611fc8565b92915050565b600081519050919050565b600082825260208201905092915050565b60005b8381101561202c578082015181840152602081019050612011565b8381111561203b576000848401525b50505050565b6000601f19601f8301169050919050565b600061205d82611ff2565b6120678185611ffd565b935061207781856020860161200e565b61208081612041565b840191505092915050565b600060208201905081810360008301526120a58184612052565b905092915050565b6000819050919050565b6120c0816120ad565b81146120cb57600080fd5b50565b6000813590506120dd816120b7565b92915050565b6000602082840312156120f9576120f8611f2d565b5b6000612107848285016120ce565b91505092915050565b600073ffffffffffffffffffffffffffffffffffffffff82169050919050565b600061213b82612110565b9050919050565b61214b81612130565b82525050565b60006020820190506121666000830184612142565b92915050565b61217581612130565b811461218057600080fd5b50565b6000813590506121928161216c565b92915050565b600080604083850312156121af576121ae611f2d565b5b60006121bd85828601612183565b92505060206121ce858286016120ce565b9150509250929050565b6121e1816120ad565b82525050565b60006020820190506121fc60008301846121d8565b92915050565b60008060006060848603121561221b5761221a611f2d565b5b600061222986828701612183565b935050602061223a86828701612183565b925050604061224b868287016120ce565b9150509250925092565b600080fd5b600080fd5b7f4e487b7100000000000000000000000000000000000000000000000000000000600052604160045260246000fd5b61229782612041565b810181811067ffffffffffffffff821117156122b6576122b561225f565b5b80604052505050565b60006122c9611f23565b90506122d5828261228e565b919050565b600067ffffffffffffffff8211156122f5576122f461225f565b5b6122fe82612041565b9050602081019050919050565b82818337600083830152505050565b600061232d612328846122da565b6122bf565b9050828152602081018484840111156123495761234861225a565b5b61235484828561230b565b509392505050565b600082601f83011261237157612370612255565b5b813561238184826020860161231a565b91505092915050565b600080604083850312156123a1576123a0611f2d565b5b60006123af85828601612183565b925050602083013567ffffffffffffffff8111156123d0576123cf611f32565b5b6123dc8582860161235c565b9150509250929050565b6000602082840312156123fc576123fb611f2d565b5b600061240a84828501612183565b91505092915050565b61241c81611fbc565b811461242757600080fd5b50565b60008135905061243981612413565b92915050565b6000806040838503121561245657612455611f2d565b5b600061246485828601612183565b92505060206124758582860161242a565b9150509250929050565b600067ffffffffffffffff82111561249a5761249961225f565b5b6124a382612041565b9050602081019050919050565b60006124c36124be8461247f565b6122bf565b9050828152602081018484840111156124df576124de61225a565b5b6124ea84828561230b565b509392505050565b600082601f83011261250757612506612255565b5b81356125178482602086016124b0565b91505092915050565b6000806000806080858703121561253a57612539611f2d565b5b600061254887828801612183565b945050602061255987828801612183565b935050604061256a878288016120ce565b925050606085013567ffffffffffffffff81111561258b5761258a611f32565b5b612597878288016124f2565b91505092959194509250565b600080604083850312156125ba576125b9611f2d565b5b60006125c885828601612183565b92505060206125d985828601612183565b9150509250929050565b7f4e487b7100000000000000000000000000000000000000000000000000000000600052602260045260246000fd5b6000600282049050600182168061262a57607f821691505b6020821081141561263e5761263d6125e3565b5b50919050565b7f4552433732313a20617070726f76656420717565727920666f72206e6f6e657860008201527f697374656e7420746f6b656e0000000000000000000000000000000000000000602082015250565b60006126a0602c83611ffd565b91506126ab82612644565b604082019050919050565b600060208201905081810360008301526126cf81612693565b9050919050565b7f4552433732313a20617070726f76616c20746f2063757272656e74206f776e6560008201527f7200000000000000000000000000000000000000000000000000000000000000602082015250565b6000612732602183611ffd565b915061273d826126d6565b604082019050919050565b6000602082019050818103600083015261276181612725565b9050919050565b7f4552433732313a20617070726f76652063616c6c6572206973206e6f74206f7760008201527f6e6572206e6f7220617070726f76656420666f7220616c6c0000000000000000602082015250565b60006127c4603883611ffd565b91506127cf82612768565b604082019050919050565b600060208201905081810360008301526127f3816127b7565b9050919050565b7f4552433732313a207472616e736665722063616c6c6572206973206e6f74206f60008201527f776e6572206e6f7220617070726f766564000000000000000000000000000000602082015250565b6000612856603183611ffd565b9150612861826127fa565b604082019050919050565b6000602082019050818103600083015261288581612849565b9050919050565b7f455243373231456e756d657261626c653a206f776e657220696e646578206f7560008201527f74206f6620626f756e6473000000000000000000000000000000000000000000602082015250565b60006128e8602b83611ffd565b91506128f38261288c565b604082019050919050565b60006020820190508181036000830152612917816128db565b9050919050565b7f455243373231456e756d657261626c653a20676c6f62616c20696e646578206f60008201527f7574206f6620626f756e64730000000000000000000000000000000000000000602082015250565b600061297a602c83611ffd565b91506129858261291e565b604082019050919050565b600060208201905081810360008301526129a98161296d565b9050919050565b7f4e487b7100000000000000000000000000000000000000000000000000000000600052603260045260246000fd5b7f4552433732313a206f776e657220717565727920666f72206e6f6e657869737460008201527f656e7420746f6b656e0000000000000000000000000000000000000000000000602082015250565b6000612a3b602983611ffd565b9150612a46826129df565b604082019050919050565b60006020820190508181036000830152612a6a81612a2e565b9050919050565b7f4552433732313a2062616c616e636520717565727920666f7220746865207a6560008201527f726f206164647265737300000000000000000000000000000000000000000000602082015250565b6000612acd602a83611ffd565b9150612ad882612a71565b604082019050919050565b60006020820190508181036000830152612afc81612ac0565b9050919050565b7f4552433732313a20617070726f766520746f2063616c6c657200000000000000600082015250565b6000612b39601983611ffd565b9150612b4482612b03565b602082019050919050565b60006020820190508181036000830152612b6881612b2c565b9050919050565b7f4552433732313a206f70657261746f7220717565727920666f72206e6f6e657860008201527f697374656e7420746f6b656e0000000000000000000000000000000000000000602082015250565b6000612bcb602c83611ffd565b9150612bd682612b6f565b604082019050919050565b60006020820190508181036000830152612bfa81612bbe565b9050919050565b7f4552433732313a207472616e73666572206f6620746f6b656e2074686174206960008201527f73206e6f74206f776e0000000000000000000000000000000000000000000000602082015250565b6000612c5d602983611ffd565b9150612c6882612c01565b604082019050919050565b60006020820190508181036000830152612c8c81612c50565b9050919050565b7f4552433732313a207472616e7366657220746f20746865207a65726f2061646460008201527f7265737300000000000000000000000000000000000000000000000000000000602082015250565b6000612cef602483611ffd565b9150612cfa82612c93565b604082019050919050565b60006020820190508181036000830152612d1e81612ce2565b9050919050565b7f4e487b7100000000000000000000000000000000000000000000000000000000600052601160045260246000fd5b6000612d5f826120ad565b9150612d6a836120ad565b925082821015612d7d57612d7c612d25565b5b828203905092915050565b6000612d93826120ad565b9150612d9e836120ad565b9250827fffffffffffffffffffffffffffffffffffffffffffffffffffffffffffffffff03821115612dd357612dd2612d25565b5b828201905092915050565b7f4552433732313a206d696e7420746f20746865207a65726f2061646472657373600082015250565b6000612e14602083611ffd565b9150612e1f82612dde565b602082019050919050565b60006020820190508181036000830152612e4381612e07565b9050919050565b7f4552433732313a20746f6b656e20616c7265616479206d696e74656400000000600082015250565b6000612e80601c83611ffd565b9150612e8b82612e4a565b602082019050919050565b60006020820190508181036000830152612eaf81612e73565b9050919050565b7f45524337323155524953746f726167653a2055524920736574206f66206e6f6e60008201527f6578697374656e7420746f6b656e000000000000000000000000000000000000602082015250565b6000612f12602e83611ffd565b9150612f1d82612eb6565b604082019050919050565b60006020820190508181036000830152612f4181612f05565b9050919050565b7f4552433732313a207472616e7366657220746f206e6f6e20455243373231526560008201527f63656976657220696d706c656d656e7465720000000000000000000000000000602082015250565b6000612fa4603283611ffd565b9150612faf82612f48565b604082019050919050565b60006020820190508181036000830152612fd381612f97565b9050919050565b7f45524337323155524953746f726167653a2055524920717565727920666f722060008201527f6e6f6e6578697374656e7420746f6b656e000000000000000000000000000000602082015250565b6000613036603183611ffd565b915061304182612fda565b604082019050919050565b6000602082019050818103600083015261306581613029565b9050919050565b600081905092915050565b600061308282611ff2565b61308c818561306c565b935061309c81856020860161200e565b80840191505092915050565b60006130b48285613077565b91506130c08284613077565b91508190509392505050565b600081519050919050565b600082825260208201905092915050565b60006130f3826130cc565b6130fd81856130d7565b935061310d81856020860161200e565b61311681612041565b840191505092915050565b60006080820190506131366000830187612142565b6131436020830186612142565b61315060408301856121d8565b818103606083015261316281846130e8565b905095945050505050565b60008151905061317c81611f63565b92915050565b60006020828403121561319857613197611f2d565b5b60006131a68482850161316d565b91505092915050565b7f4552433732314d657461646174613a2055524920717565727920666f72206e6f60008201527f6e6578697374656e7420746f6b656e0000000000000000000000000000000000602082015250565b600061320b602f83611ffd565b9150613216826131af565b604082019050919050565b6000602082019050818103600083015261323a816131fe565b9050919050565b600061324c826120ad565b91507fffffffffffffffffffffffffffffffffffffffffffffffffffffffffffffffff82141561327f5761327e612d25565b5b600182019050919050565b7f4e487b7100000000000000000000000000000000000000000000000000000000600052601260045260246000fd5b60006132c4826120ad565b91506132cf836120ad565b9250826132df576132de61328a565b5b828204905092915050565b60006132f5826120ad565b9150613300836120ad565b9250826133105761330f61328a565b5b828206905092915050565b7f4e487b7100000000000000000000000000000000000000000000000000000000600052603160045260246000fdfea26469706673582212207139fa6c24b9a49fef707ed3b7b796fb287bddfc528c3f58811e0e7faee3f2a064736f6c63430008090033",
  "immutableReferences": {},
  "source": "// SPDX-License-Identifier: MIT\npragma solidity ^0.8.0;\n\nimport \"@openzeppelin/contracts/token/ERC721/extensions/ERC721URIStorage.sol\";\nimport \"@openzeppelin/contracts/token/ERC721/extensions/ERC721Enumerable.sol\";\nimport \"@openzeppelin/contracts/utils/Counters.sol\";\n\n/// @title A smart contract to generate ERC721 tokens for testing the MetaMarket platform\n/// @author @kevsherman\n/// @notice Still a WIP, demo purposes only\ncontract WorldSwapToken is ERC721URIStorage, ERC721Enumerable{\n    using Counters for Counters.Counter;\n    Counters.Counter private _tokenIds;\n\n    /// @notice Initializes the contract by calling ERC721 with the WorldSwapToken name and symbol.\n    constructor() ERC721(\"WorldSwapToken\", \"SWAP\") {}\n\n    /// @notice Awards a WRLD token to the provided address\n    /// @dev Storage functionality included so a link to a json metadata blob can be used later\n    function awardToken(address user, string memory tokenURI)\n        public\n        returns (uint256)\n    {\n        _tokenIds.increment();\n\n        uint256 newTokenId = _tokenIds.current();\n        _mint(user, newTokenId);\n        _setTokenURI(newTokenId, tokenURI); //Could use a local rails address here for URI?\n\n        return newTokenId;\n    }\n\n    /// @notice Override functions to allow both enumerable and uriStorage:  \n    /// @dev https://ethereum.stackexchange.com/questions/103674/openzeppelin-erc721-uristorage-implementation-missing-enumerable-functions\n\n    function _beforeTokenTransfer(address from, address to, uint256 tokenId)\n        internal\n        override(ERC721, ERC721Enumerable)\n    {\n        super._beforeTokenTransfer(from, to, tokenId);\n    }\n\n    function _burn(uint256 tokenId) internal override(ERC721, ERC721URIStorage) {\n        super._burn(tokenId);\n    }\n\n    function tokenURI(uint256 tokenId)\n        public\n        view\n        override(ERC721, ERC721URIStorage)\n        returns (string memory)\n    {\n        return super.tokenURI(tokenId);\n    }\n\n    function supportsInterface(bytes4 interfaceId)\n        public\n        view\n        override(ERC721, ERC721Enumerable)\n        returns (bool)\n    {\n        return super.supportsInterface(interfaceId);\n    }\n    /// End enumerable and uriStorage override functions\n}",
  "sourcePath": "/Users/kevinshouse/Projects/BlockchainBootcamp/blockchain-developer-bootcamp-final-project/contracts/WorldSwapToken.sol",
  "compiler": {
    "name": "solc",
    "version": "0.8.9+commit.e5eed63a.Emscripten.clang"
  },
  "schemaVersion": "3.4.3",
  "updatedAt": "2021-11-30T00:26:44.688Z",
  "networkType": "ethereum",
  "devdoc": {
    "author": "@kevsherman",
    "kind": "dev",
    "methods": {
      "approve(address,uint256)": {
        "details": "See {IERC721-approve}."
      },
      "awardToken(address,string)": {
        "details": "Storage functionality included so a link to a json metadata blob can be used later"
      },
      "balanceOf(address)": {
        "details": "See {IERC721-balanceOf}."
      },
      "getApproved(uint256)": {
        "details": "See {IERC721-getApproved}."
      },
      "isApprovedForAll(address,address)": {
        "details": "See {IERC721-isApprovedForAll}."
      },
      "name()": {
        "details": "See {IERC721Metadata-name}."
      },
      "ownerOf(uint256)": {
        "details": "See {IERC721-ownerOf}."
      },
      "safeTransferFrom(address,address,uint256)": {
        "details": "See {IERC721-safeTransferFrom}."
      },
      "safeTransferFrom(address,address,uint256,bytes)": {
        "details": "See {IERC721-safeTransferFrom}."
      },
      "setApprovalForAll(address,bool)": {
        "details": "See {IERC721-setApprovalForAll}."
      },
      "symbol()": {
        "details": "See {IERC721Metadata-symbol}."
      },
      "tokenByIndex(uint256)": {
        "details": "See {IERC721Enumerable-tokenByIndex}."
      },
      "tokenOfOwnerByIndex(address,uint256)": {
        "details": "See {IERC721Enumerable-tokenOfOwnerByIndex}."
      },
      "totalSupply()": {
        "details": "See {IERC721Enumerable-totalSupply}."
      },
      "transferFrom(address,address,uint256)": {
        "details": "See {IERC721-transferFrom}."
      }
    },
    "title": "A smart contract to generate ERC721 tokens for testing the MetaMarket platform",
    "version": 1
  },
  "userdoc": {
    "kind": "user",
    "methods": {
      "awardToken(address,string)": {
        "notice": "Awards a WRLD token to the provided address"
      },
      "constructor": {
        "notice": "Initializes the contract by calling ERC721 with the WorldSwapToken name and symbol."
      }
    },
    "notice": "Still a WIP, demo purposes only",
    "version": 1
  }
}